{
  "contractName": "ApprovedContract",
  "abi": [
    {
      "anonymous": false,
      "inputs": [
        {
          "indexed": false,
          "internalType": "uint256",
          "name": "issue_id",
          "type": "uint256"
        },
        {
          "indexed": false,
          "internalType": "uint256",
          "name": "contractor_id",
          "type": "uint256"
        },
        {
          "indexed": false,
          "internalType": "string",
          "name": "name",
          "type": "string"
        },
        {
          "indexed": false,
          "internalType": "uint256",
          "name": "tenure",
          "type": "uint256"
        },
        {
          "indexed": false,
          "internalType": "uint256",
          "name": "amount",
          "type": "uint256"
        },
        {
          "indexed": false,
          "internalType": "string",
          "name": "location",
          "type": "string"
        },
        {
          "indexed": false,
          "internalType": "string",
          "name": "verifiedBy",
          "type": "string"
        },
        {
          "indexed": false,
          "internalType": "string",
          "name": "approvedBy",
          "type": "string"
        }
      ],
      "name": "WinnerDeclared",
      "type": "event"
    },
    {
      "inputs": [],
      "name": "winner",
      "outputs": [
        {
          "internalType": "uint256",
          "name": "issue_id",
          "type": "uint256"
        },
        {
          "internalType": "uint256",
          "name": "contractor_id",
          "type": "uint256"
        },
        {
          "internalType": "string",
          "name": "name",
          "type": "string"
        },
        {
          "internalType": "uint256",
          "name": "tenure",
          "type": "uint256"
        },
        {
          "internalType": "uint256",
          "name": "amount",
          "type": "uint256"
        },
        {
          "internalType": "string",
          "name": "location",
          "type": "string"
        },
        {
          "internalType": "string",
          "name": "verifiedBy",
          "type": "string"
        },
        {
          "internalType": "string",
          "name": "approvedBy",
          "type": "string"
        }
      ],
      "stateMutability": "view",
      "type": "function",
      "constant": true
    },
    {
      "inputs": [],
      "name": "winnerSet",
      "outputs": [
        {
          "internalType": "bool",
          "name": "",
          "type": "bool"
        }
      ],
      "stateMutability": "view",
      "type": "function",
      "constant": true
    },
    {
      "inputs": [
        {
          "internalType": "uint256",
          "name": "_issue_id",
          "type": "uint256"
        },
        {
          "internalType": "uint256",
          "name": "_contractor_id",
          "type": "uint256"
        },
        {
          "internalType": "string",
          "name": "_name",
          "type": "string"
        },
        {
          "internalType": "uint256",
          "name": "_tenure",
          "type": "uint256"
        },
        {
          "internalType": "uint256",
          "name": "_amount",
          "type": "uint256"
        },
        {
          "internalType": "string",
          "name": "_location",
          "type": "string"
        },
        {
          "internalType": "string",
          "name": "_verifiedBy",
          "type": "string"
        },
        {
          "internalType": "string",
          "name": "_approvedBy",
          "type": "string"
        }
      ],
      "name": "setWinner",
      "outputs": [],
      "stateMutability": "nonpayable",
      "type": "function"
    },
    {
      "inputs": [],
      "name": "getWinner",
      "outputs": [
        {
          "internalType": "uint256",
          "name": "",
          "type": "uint256"
        },
        {
          "internalType": "uint256",
          "name": "",
          "type": "uint256"
        },
        {
          "internalType": "string",
          "name": "",
          "type": "string"
        },
        {
          "internalType": "uint256",
          "name": "",
          "type": "uint256"
        },
        {
          "internalType": "uint256",
          "name": "",
          "type": "uint256"
        },
        {
          "internalType": "string",
          "name": "",
          "type": "string"
        },
        {
          "internalType": "string",
          "name": "",
          "type": "string"
        },
        {
          "internalType": "string",
          "name": "",
          "type": "string"
        }
      ],
      "stateMutability": "view",
      "type": "function",
      "constant": true
    }
  ],
  "bytecode": "0x60806040526000600860006101000a81548160ff02191690831515021790555034801561002b57600080fd5b50610f878061003b6000396000f3fe608060405234801561001057600080fd5b506004361061004c5760003560e01c806378e73ff8146100515780638e7ea5b21461006f57806399ab751614610094578063dfbf53ae146100b0575b600080fd5b6100596100d5565b60405161006691906107a2565b60405180910390f35b6100776100e8565b60405161008b989796959493929190610866565b60405180910390f35b6100ae60048036038101906100a99190610a75565b6103b9565b005b6100b8610531565b6040516100cc989796959493929190610866565b60405180910390f35b600860009054906101000a900460ff1681565b60008060606000806060806060600860009054906101000a900460ff16610144576040517f08c379a000000000000000000000000000000000000000000000000000000000815260040161013b90610be7565b60405180910390fd5b6000800154600060010154600060020160006003015460006004015460006005016000600601600060070185805461017b90610c36565b80601f01602080910402602001604051908101604052809291908181526020018280546101a790610c36565b80156101f45780601f106101c9576101008083540402835291602001916101f4565b820191906000526020600020905b8154815290600101906020018083116101d757829003601f168201915b5050505050955082805461020790610c36565b80601f016020809104026020016040519081016040528092919081815260200182805461023390610c36565b80156102805780601f1061025557610100808354040283529160200191610280565b820191906000526020600020905b81548152906001019060200180831161026357829003601f168201915b5050505050925081805461029390610c36565b80601f01602080910402602001604051908101604052809291908181526020018280546102bf90610c36565b801561030c5780601f106102e15761010080835404028352916020019161030c565b820191906000526020600020905b8154815290600101906020018083116102ef57829003601f168201915b5050505050915080805461031f90610c36565b80601f016020809104026020016040519081016040528092919081815260200182805461034b90610c36565b80156103985780601f1061036d57610100808354040283529160200191610398565b820191906000526020600020905b81548152906001019060200180831161037b57829003601f168201915b50505050509050975097509750975097509750975097509091929394959697565b600860009054906101000a900460ff1615610409576040517f08c379a000000000000000000000000000000000000000000000000000000000815260040161040090610cb3565b60405180910390fd5b60405180610100016040528089815260200188815260200187815260200186815260200185815260200184815260200183815260200182815250600080820151816000015560208201518160010155604082015181600201908161046d9190610e7f565b50606082015181600301556080820151816004015560a08201518160050190816104979190610e7f565b5060c08201518160060190816104ad9190610e7f565b5060e08201518160070190816104c39190610e7f565b509050506001600860006101000a81548160ff0219169083151502179055507fdcbebce00226ef9214fc7d73d830d2d7f6ec275677a610463c29c5890ceb95a6888888888888888860405161051f989796959493929190610866565b60405180910390a15050505050505050565b600080600001549080600101549080600201805461054e90610c36565b80601f016020809104026020016040519081016040528092919081815260200182805461057a90610c36565b80156105c75780601f1061059c576101008083540402835291602001916105c7565b820191906000526020600020905b8154815290600101906020018083116105aa57829003601f168201915b5050505050908060030154908060040154908060050180546105e890610c36565b80601f016020809104026020016040519081016040528092919081815260200182805461061490610c36565b80156106615780601f1061063657610100808354040283529160200191610661565b820191906000526020600020905b81548152906001019060200180831161064457829003601f168201915b50505050509080600601805461067690610c36565b80601f01602080910402602001604051908101604052809291908181526020018280546106a290610c36565b80156106ef5780601f106106c4576101008083540402835291602001916106ef565b820191906000526020600020905b8154815290600101906020018083116106d257829003601f168201915b50505050509080600701805461070490610c36565b80601f016020809104026020016040519081016040528092919081815260200182805461073090610c36565b801561077d5780601f106107525761010080835404028352916020019161077d565b820191906000526020600020905b81548152906001019060200180831161076057829003601f168201915b5050505050905088565b60008115159050919050565b61079c81610787565b82525050565b60006020820190506107b76000830184610793565b92915050565b6000819050919050565b6107d0816107bd565b82525050565b600081519050919050565b600082825260208201905092915050565b60005b838110156108105780820151818401526020810190506107f5565b60008484015250505050565b6000601f19601f8301169050919050565b6000610838826107d6565b61084281856107e1565b93506108528185602086016107f2565b61085b8161081c565b840191505092915050565b60006101008201905061087c600083018b6107c7565b610889602083018a6107c7565b818103604083015261089b818961082d565b90506108aa60608301886107c7565b6108b760808301876107c7565b81810360a08301526108c9818661082d565b905081810360c08301526108dd818561082d565b905081810360e08301526108f1818461082d565b90509998505050505050505050565b6000604051905090565b600080fd5b600080fd5b61091d816107bd565b811461092857600080fd5b50565b60008135905061093a81610914565b92915050565b600080fd5b600080fd5b7f4e487b7100000000000000000000000000000000000000000000000000000000600052604160045260246000fd5b6109828261081c565b810181811067ffffffffffffffff821117156109a1576109a061094a565b5b80604052505050565b60006109b4610900565b90506109c08282610979565b919050565b600067ffffffffffffffff8211156109e0576109df61094a565b5b6109e98261081c565b9050602081019050919050565b82818337600083830152505050565b6000610a18610a13846109c5565b6109aa565b905082815260208101848484011115610a3457610a33610945565b5b610a3f8482856109f6565b509392505050565b600082601f830112610a5c57610a5b610940565b5b8135610a6c848260208601610a05565b91505092915050565b600080600080600080600080610100898b031215610a9657610a9561090a565b5b6000610aa48b828c0161092b565b9850506020610ab58b828c0161092b565b975050604089013567ffffffffffffffff811115610ad657610ad561090f565b5b610ae28b828c01610a47565b9650506060610af38b828c0161092b565b9550506080610b048b828c0161092b565b94505060a089013567ffffffffffffffff811115610b2557610b2461090f565b5b610b318b828c01610a47565b93505060c089013567ffffffffffffffff811115610b5257610b5161090f565b5b610b5e8b828c01610a47565b92505060e089013567ffffffffffffffff811115610b7f57610b7e61090f565b5b610b8b8b828c01610a47565b9150509295985092959890939650565b7f57696e6e6572206973206e6f7420736574207965742100000000000000000000600082015250565b6000610bd16016836107e1565b9150610bdc82610b9b565b602082019050919050565b60006020820190508181036000830152610c0081610bc4565b9050919050565b7f4e487b7100000000000000000000000000000000000000000000000000000000600052602260045260246000fd5b60006002820490506001821680610c4e57607f821691505b602082108103610c6157610c60610c07565b5b50919050565b7f57696e6e657220697320616c7265616479207365742100000000000000000000600082015250565b6000610c9d6016836107e1565b9150610ca882610c67565b602082019050919050565b60006020820190508181036000830152610ccc81610c90565b9050919050565b60008190508160005260206000209050919050565b60006020601f8301049050919050565b600082821b905092915050565b600060088302610d357fffffffffffffffffffffffffffffffffffffffffffffffffffffffffffffffff82610cf8565b610d3f8683610cf8565b95508019841693508086168417925050509392505050565b6000819050919050565b6000610d7c610d77610d72846107bd565b610d57565b6107bd565b9050919050565b6000819050919050565b610d9683610d61565b610daa610da282610d83565b848454610d05565b825550505050565b600090565b610dbf610db2565b610dca818484610d8d565b505050565b5b81811015610dee57610de3600082610db7565b600181019050610dd0565b5050565b601f821115610e3357610e0481610cd3565b610e0d84610ce8565b81016020851015610e1c578190505b610e30610e2885610ce8565b830182610dcf565b50505b505050565b600082821c905092915050565b6000610e5660001984600802610e38565b1980831691505092915050565b6000610e6f8383610e45565b9150826002028217905092915050565b610e88826107d6565b67ffffffffffffffff811115610ea157610ea061094a565b5b610eab8254610c36565b610eb6828285610df2565b600060209050601f831160018114610ee95760008415610ed7578287015190505b610ee18582610e63565b865550610f49565b601f198416610ef786610cd3565b60005b82811015610f1f57848901518255600182019150602085019450602081019050610efa565b86831015610f3c5784890151610f38601f891682610e45565b8355505b6001600288020188555050505b50505050505056fea26469706673582212203f3e9cea3347c5dfcf5f7ac32ac7537009b0ad46491e8874b8bad5bdc76f5be964736f6c63430008120033",
  "immutableReferences": {},
  "source": "// SPDX-License-Identifier: MIT\r\npragma solidity ^0.8.18;\r\n\r\ncontract ApprovedContract {\r\n    struct Winner {\r\n        uint256 issue_id;\r\n        uint256 contractor_id;\r\n        string name;\r\n        uint256 tenure;\r\n        uint256 amount;\r\n        string location;\r\n        string verifiedBy;\r\n        string approvedBy;\r\n    }\r\n\r\n    Winner public winner;\r\n    bool public winnerSet = false;\r\n\r\n    // Event to announce the winning contractor\r\n    event WinnerDeclared(\r\n        uint256 issue_id,\r\n        uint256 contractor_id,\r\n        string name,\r\n        uint256 tenure,\r\n        uint256 amount,\r\n        string location,\r\n        string verifiedBy,\r\n        string approvedBy\r\n    );\r\n\r\n    function setWinner(\r\n        uint256 _issue_id,\r\n        uint256 _contractor_id,\r\n        string memory _name,\r\n        uint256 _tenure,\r\n        uint256 _amount,\r\n        string memory _location,\r\n        string memory _verifiedBy,\r\n        string memory _approvedBy\r\n    ) public {\r\n        require(!winnerSet, \"Winner is already set!\");\r\n        winner = Winner(_issue_id, _contractor_id, _name, _tenure, _amount, _location, _verifiedBy, _approvedBy);\r\n        winnerSet = true;\r\n\r\n        emit WinnerDeclared(_issue_id, _contractor_id, _name, _tenure, _amount, _location, _verifiedBy, _approvedBy);\r\n    }\r\n\r\n    function getWinner()\r\n        public\r\n        view\r\n        returns (\r\n            uint256,\r\n            uint256,\r\n            string memory,\r\n            uint256,\r\n            uint256,\r\n            string memory,\r\n            string memory,\r\n            string memory\r\n        )\r\n    {\r\n        require(winnerSet, \"Winner is not set yet!\");\r\n        return (\r\n            winner.issue_id,\r\n            winner.contractor_id,\r\n            winner.name,\r\n            winner.tenure,\r\n            winner.amount,\r\n            winner.location,\r\n            winner.verifiedBy,\r\n            winner.approvedBy\r\n        );\r\n    }\r\n}",
  "sourcePath": "C:\\Users\\jeyav\\Desktop\\workspace\\github\\ConTracker\\dapp\\contracts\\approvedContract.sol",
  "compiler": {
    "name": "solc",
    "version": "0.8.18+commit.87f61d96.Emscripten.clang"
  },
  "schemaVersion": "3.4.16",
  "updatedAt": "2025-01-10T17:47:22.603Z",
  "networkType": "ethereum",
  "devdoc": {
    "kind": "dev",
    "methods": {},
    "version": 1
  },
  "userdoc": {
    "kind": "user",
    "methods": {},
    "version": 1
  }
}