{
  "contractName": "Bidding",
  "abi": [
    {
      "anonymous": false,
      "inputs": [
        {
          "indexed": false,
          "internalType": "string",
          "name": "name",
          "type": "string"
        },
        {
          "indexed": false,
          "internalType": "uint256",
          "name": "tenure",
          "type": "uint256"
        },
        {
          "indexed": false,
          "internalType": "uint256",
          "name": "amount",
          "type": "uint256"
        },
        {
          "indexed": false,
          "internalType": "string",
          "name": "location",
          "type": "string"
        },
        {
          "indexed": false,
          "internalType": "address",
          "name": "verifiedBy",
          "type": "address"
        },
        {
          "indexed": false,
          "internalType": "address",
          "name": "approvedBy",
          "type": "address"
        }
      ],
      "name": "WinnerDeclared",
      "type": "event"
    },
    {
      "inputs": [],
      "name": "isWinnerSet",
      "outputs": [
        {
          "internalType": "bool",
          "name": "",
          "type": "bool"
        }
      ],
      "stateMutability": "view",
      "type": "function"
    },
    {
      "inputs": [],
      "name": "winner",
      "outputs": [
        {
          "internalType": "string",
          "name": "name",
          "type": "string"
        },
        {
          "internalType": "uint256",
          "name": "tenure",
          "type": "uint256"
        },
        {
          "internalType": "uint256",
          "name": "amount",
          "type": "uint256"
        },
        {
          "internalType": "string",
          "name": "location",
          "type": "string"
        },
        {
          "internalType": "address",
          "name": "verifiedBy",
          "type": "address"
        },
        {
          "internalType": "address",
          "name": "approvedBy",
          "type": "address"
        }
      ],
      "stateMutability": "view",
      "type": "function"
    },
    {
      "inputs": [
        {
          "internalType": "string",
          "name": "_name",
          "type": "string"
        },
        {
          "internalType": "uint256",
          "name": "_tenure",
          "type": "uint256"
        },
        {
          "internalType": "uint256",
          "name": "_amount",
          "type": "uint256"
        },
        {
          "internalType": "string",
          "name": "_location",
          "type": "string"
        },
        {
          "internalType": "address",
          "name": "_verifiedBy",
          "type": "address"
        },
        {
          "internalType": "address",
          "name": "_approvedBy",
          "type": "address"
        }
      ],
      "name": "setWinner",
      "outputs": [],
      "stateMutability": "nonpayable",
      "type": "function"
    },
    {
      "inputs": [],
      "name": "getWinner",
      "outputs": [
        {
          "internalType": "string",
          "name": "",
          "type": "string"
        },
        {
          "internalType": "uint256",
          "name": "",
          "type": "uint256"
        },
        {
          "internalType": "uint256",
          "name": "",
          "type": "uint256"
        },
        {
          "internalType": "string",
          "name": "",
          "type": "string"
        },
        {
          "internalType": "address",
          "name": "",
          "type": "address"
        },
        {
          "internalType": "address",
          "name": "",
          "type": "address"
        }
      ],
      "stateMutability": "view",
      "type": "function"
    }
  ],
  "bytecode": "0x608060405234801561001057600080fd5b50610e04806100206000396000f3fe608060405234801561001057600080fd5b506004361061004c5760003560e01c80631fac030e1461005157806365c664b21461006f5780638e7ea5b21461008b578063dfbf53ae146100ae575b600080fd5b6100596100d1565b604051610066919061063e565b60405180910390f35b61008960048036038101906100849190610847565b6100e4565b005b6100936102c3565b6040516100a5969594939291906109a9565b60405180910390f35b6100b66104a9565b6040516100c8969594939291906109a9565b60405180910390f35b600660009054906101000a900460ff1681565b600660009054906101000a900460ff1615610134576040517f08c379a000000000000000000000000000000000000000000000000000000000815260040161012b90610a64565b60405180910390fd5b6040518060c001604052808781526020018681526020018581526020018481526020018373ffffffffffffffffffffffffffffffffffffffff1681526020018273ffffffffffffffffffffffffffffffffffffffff168152506000808201518160000190816101a39190610c90565b50602082015181600101556040820151816002015560608201518160030190816101cd9190610c90565b5060808201518160040160006101000a81548173ffffffffffffffffffffffffffffffffffffffff021916908373ffffffffffffffffffffffffffffffffffffffff16021790555060a08201518160050160006101000a81548173ffffffffffffffffffffffffffffffffffffffff021916908373ffffffffffffffffffffffffffffffffffffffff1602179055509050506001600660006101000a81548160ff0219169083151502179055507f15d35f891f63b50d90580e79a15af38c14a452b3f15dac2522a15581adfc87a98686868686866040516102b3969594939291906109a9565b60405180910390a1505050505050565b60606000806060600080600660009054906101000a900460ff1661031c576040517f08c379a000000000000000000000000000000000000000000000000000000000815260040161031390610dae565b60405180910390fd5b600080016000600101546000600201546000600301600060040160009054906101000a900473ffffffffffffffffffffffffffffffffffffffff16600060050160009054906101000a900473ffffffffffffffffffffffffffffffffffffffff1685805461038990610ab3565b80601f01602080910402602001604051908101604052809291908181526020018280546103b590610ab3565b80156104025780601f106103d757610100808354040283529160200191610402565b820191906000526020600020905b8154815290600101906020018083116103e557829003601f168201915b5050505050955082805461041590610ab3565b80601f016020809104026020016040519081016040528092919081815260200182805461044190610ab3565b801561048e5780601f106104635761010080835404028352916020019161048e565b820191906000526020600020905b81548152906001019060200180831161047157829003601f168201915b50505050509250955095509550955095509550909192939495565b60008060000180546104ba90610ab3565b80601f01602080910402602001604051908101604052809291908181526020018280546104e690610ab3565b80156105335780601f1061050857610100808354040283529160200191610533565b820191906000526020600020905b81548152906001019060200180831161051657829003601f168201915b50505050509080600101549080600201549080600301805461055490610ab3565b80601f016020809104026020016040519081016040528092919081815260200182805461058090610ab3565b80156105cd5780601f106105a2576101008083540402835291602001916105cd565b820191906000526020600020905b8154815290600101906020018083116105b057829003601f168201915b5050505050908060040160009054906101000a900473ffffffffffffffffffffffffffffffffffffffff16908060050160009054906101000a900473ffffffffffffffffffffffffffffffffffffffff16905086565b60008115159050919050565b61063881610623565b82525050565b6000602082019050610653600083018461062f565b92915050565b6000604051905090565b600080fd5b600080fd5b600080fd5b600080fd5b6000601f19601f8301169050919050565b7f4e487b7100000000000000000000000000000000000000000000000000000000600052604160045260246000fd5b6106c082610677565b810181811067ffffffffffffffff821117156106df576106de610688565b5b80604052505050565b60006106f2610659565b90506106fe82826106b7565b919050565b600067ffffffffffffffff82111561071e5761071d610688565b5b61072782610677565b9050602081019050919050565b82818337600083830152505050565b600061075661075184610703565b6106e8565b90508281526020810184848401111561077257610771610672565b5b61077d848285610734565b509392505050565b600082601f83011261079a5761079961066d565b5b81356107aa848260208601610743565b91505092915050565b6000819050919050565b6107c6816107b3565b81146107d157600080fd5b50565b6000813590506107e3816107bd565b92915050565b600073ffffffffffffffffffffffffffffffffffffffff82169050919050565b6000610814826107e9565b9050919050565b61082481610809565b811461082f57600080fd5b50565b6000813590506108418161081b565b92915050565b60008060008060008060c0878903121561086457610863610663565b5b600087013567ffffffffffffffff81111561088257610881610668565b5b61088e89828a01610785565b965050602061089f89828a016107d4565b95505060406108b089828a016107d4565b945050606087013567ffffffffffffffff8111156108d1576108d0610668565b5b6108dd89828a01610785565b93505060806108ee89828a01610832565b92505060a06108ff89828a01610832565b9150509295509295509295565b600081519050919050565b600082825260208201905092915050565b60005b8381101561094657808201518184015260208101905061092b565b60008484015250505050565b600061095d8261090c565b6109678185610917565b9350610977818560208601610928565b61098081610677565b840191505092915050565b610994816107b3565b82525050565b6109a381610809565b82525050565b600060c08201905081810360008301526109c38189610952565b90506109d2602083018861098b565b6109df604083018761098b565b81810360608301526109f18186610952565b9050610a00608083018561099a565b610a0d60a083018461099a565b979650505050505050565b7f57696e6e657220697320616c7265616479207365742100000000000000000000600082015250565b6000610a4e601683610917565b9150610a5982610a18565b602082019050919050565b60006020820190508181036000830152610a7d81610a41565b9050919050565b7f4e487b7100000000000000000000000000000000000000000000000000000000600052602260045260246000fd5b60006002820490506001821680610acb57607f821691505b602082108103610ade57610add610a84565b5b50919050565b60008190508160005260206000209050919050565b60006020601f8301049050919050565b600082821b905092915050565b600060088302610b467fffffffffffffffffffffffffffffffffffffffffffffffffffffffffffffffff82610b09565b610b508683610b09565b95508019841693508086168417925050509392505050565b6000819050919050565b6000610b8d610b88610b83846107b3565b610b68565b6107b3565b9050919050565b6000819050919050565b610ba783610b72565b610bbb610bb382610b94565b848454610b16565b825550505050565b600090565b610bd0610bc3565b610bdb818484610b9e565b505050565b5b81811015610bff57610bf4600082610bc8565b600181019050610be1565b5050565b601f821115610c4457610c1581610ae4565b610c1e84610af9565b81016020851015610c2d578190505b610c41610c3985610af9565b830182610be0565b50505b505050565b600082821c905092915050565b6000610c6760001984600802610c49565b1980831691505092915050565b6000610c808383610c56565b9150826002028217905092915050565b610c998261090c565b67ffffffffffffffff811115610cb257610cb1610688565b5b610cbc8254610ab3565b610cc7828285610c03565b600060209050601f831160018114610cfa5760008415610ce8578287015190505b610cf28582610c74565b865550610d5a565b601f198416610d0886610ae4565b60005b82811015610d3057848901518255600182019150602085019450602081019050610d0b565b86831015610d4d5784890151610d49601f891682610c56565b8355505b6001600288020188555050505b505050505050565b7f57696e6e657220686173206e6f74206265656e20736574207965742100000000600082015250565b6000610d98601c83610917565b9150610da382610d62565b602082019050919050565b60006020820190508181036000830152610dc781610d8b565b905091905056fea2646970667358221220b9a4f68a0aad3d10a2945df0eb777060ff16623b311ffc45e1a0fbb25afd11b864736f6c63430008120033",
  "immutableReferences": {},
  "source": "// SPDX-License-Identifier: MIT\r\npragma solidity ^0.8.18;\r\n\r\ncontract Bidding {\r\n    struct Contractor {\r\n        string name;          // Name of the contractor\r\n        uint256 tenure;       // Tenure for project completion (in days)\r\n        uint256 amount;       // Quoted amount for the project\r\n        string location;      // Location of the project\r\n        address verifiedBy;   // Address of the person who verified the bid\r\n        address approvedBy;   // Address of the authority who approved the bid\r\n    }\r\n\r\n    Contractor public winner;\r\n    bool public isWinnerSet;\r\n\r\n    // Event to announce the winning contractor\r\n    event WinnerDeclared(\r\n        string name,\r\n        uint256 tenure,\r\n        uint256 amount,\r\n        string location,\r\n        address verifiedBy,\r\n        address approvedBy\r\n    );\r\n\r\n    // Function to set the winning contractor's details\r\n    function setWinner(\r\n        string memory _name,\r\n        uint256 _tenure,\r\n        uint256 _amount,\r\n        string memory _location,\r\n        address _verifiedBy,\r\n        address _approvedBy\r\n    ) public {\r\n        require(!isWinnerSet, \"Winner is already set!\");\r\n\r\n        winner = Contractor({\r\n            name: _name,\r\n            tenure: _tenure,\r\n            amount: _amount,\r\n            location: _location,\r\n            verifiedBy: _verifiedBy,\r\n            approvedBy: _approvedBy\r\n        });\r\n\r\n        isWinnerSet = true;\r\n\r\n        emit WinnerDeclared(_name, _tenure, _amount, _location, _verifiedBy, _approvedBy);\r\n    }\r\n\r\n    // Function to get the winning contractor's details\r\n    function getWinner()\r\n        public\r\n        view\r\n        returns (\r\n            string memory,\r\n            uint256,\r\n            uint256,\r\n            string memory,\r\n            address,\r\n            address\r\n        )\r\n    {\r\n        require(isWinnerSet, \"Winner has not been set yet!\");\r\n        return (\r\n            winner.name,\r\n            winner.tenure,\r\n            winner.amount,\r\n            winner.location,\r\n            winner.verifiedBy,\r\n            winner.approvedBy\r\n        );\r\n    }\r\n}\r\n",
  "sourcePath": "C:\\Users\\jeyav\\Desktop\\workspace\\github\\ConTracker\\dapp\\contracts\\approvedContract.sol",
  "compiler": {
    "name": "solc",
    "version": "0.8.18+commit.87f61d96.Emscripten.clang"
  },
  "schemaVersion": "3.4.16",
  "updatedAt": "2025-01-10T16:31:17.096Z",
  "devdoc": {
    "kind": "dev",
    "methods": {},
    "version": 1
  },
  "userdoc": {
    "kind": "user",
    "methods": {},
    "version": 1
  }
}