{
  "contractName": "IssueManagement",
  "abi": [
    {
      "anonymous": false,
      "inputs": [
        {
          "indexed": false,
          "internalType": "uint256",
          "name": "issueId",
          "type": "uint256"
        },
        {
          "indexed": false,
          "internalType": "string",
          "name": "issueName",
          "type": "string"
        },
        {
          "indexed": false,
          "internalType": "string",
          "name": "description",
          "type": "string"
        },
        {
          "indexed": false,
          "internalType": "string",
          "name": "dateOfComplaint",
          "type": "string"
        },
        {
          "indexed": false,
          "internalType": "address",
          "name": "creator",
          "type": "address"
        }
      ],
      "name": "IssueCreated",
      "type": "event"
    },
    {
      "anonymous": false,
      "inputs": [
        {
          "indexed": false,
          "internalType": "uint256",
          "name": "issueId",
          "type": "uint256"
        }
      ],
      "name": "IssueResolved",
      "type": "event"
    },
    {
      "inputs": [
        {
          "internalType": "uint256",
          "name": "",
          "type": "uint256"
        }
      ],
      "name": "issues",
      "outputs": [
        {
          "internalType": "uint256",
          "name": "issueId",
          "type": "uint256"
        },
        {
          "internalType": "string",
          "name": "issueName",
          "type": "string"
        },
        {
          "internalType": "string",
          "name": "description",
          "type": "string"
        },
        {
          "internalType": "string",
          "name": "dateOfComplaint",
          "type": "string"
        },
        {
          "internalType": "uint256",
          "name": "approvalVotes",
          "type": "uint256"
        },
        {
          "internalType": "uint256",
          "name": "denialVotes",
          "type": "uint256"
        },
        {
          "components": [
            {
              "internalType": "uint256",
              "name": "accuracy",
              "type": "uint256"
            },
            {
              "internalType": "int256",
              "name": "altitude",
              "type": "int256"
            },
            {
              "internalType": "int256",
              "name": "latitude",
              "type": "int256"
            },
            {
              "internalType": "int256",
              "name": "longitude",
              "type": "int256"
            }
          ],
          "internalType": "struct IssueManagement.Location",
          "name": "location",
          "type": "tuple"
        },
        {
          "internalType": "address",
          "name": "creator",
          "type": "address"
        },
        {
          "internalType": "bool",
          "name": "resolved",
          "type": "bool"
        }
      ],
      "stateMutability": "view",
      "type": "function",
      "constant": true
    },
    {
      "inputs": [
        {
          "internalType": "uint256",
          "name": "_issueId",
          "type": "uint256"
        },
        {
          "internalType": "string",
          "name": "_issueName",
          "type": "string"
        },
        {
          "internalType": "string",
          "name": "_description",
          "type": "string"
        },
        {
          "internalType": "string",
          "name": "_dateOfComplaint",
          "type": "string"
        },
        {
          "internalType": "uint256",
          "name": "_approval",
          "type": "uint256"
        },
        {
          "internalType": "uint256",
          "name": "_denial",
          "type": "uint256"
        },
        {
          "internalType": "uint256",
          "name": "_accuracy",
          "type": "uint256"
        },
        {
          "internalType": "int256",
          "name": "_altitude",
          "type": "int256"
        },
        {
          "internalType": "int256",
          "name": "_latitude",
          "type": "int256"
        },
        {
          "internalType": "int256",
          "name": "_longitude",
          "type": "int256"
        }
      ],
      "name": "createIssue",
      "outputs": [],
      "stateMutability": "nonpayable",
      "type": "function"
    },
    {
      "inputs": [
        {
          "internalType": "uint256",
          "name": "_issueId",
          "type": "uint256"
        }
      ],
      "name": "resolveIssue",
      "outputs": [],
      "stateMutability": "nonpayable",
      "type": "function"
    },
    {
      "inputs": [
        {
          "internalType": "uint256",
          "name": "_issueId",
          "type": "uint256"
        }
      ],
      "name": "getIssueById",
      "outputs": [
        {
          "internalType": "uint256",
          "name": "issueId",
          "type": "uint256"
        },
        {
          "internalType": "string",
          "name": "issueName",
          "type": "string"
        },
        {
          "internalType": "string",
          "name": "description",
          "type": "string"
        }
      ],
      "stateMutability": "view",
      "type": "function",
      "constant": true
    }
  ],
  "bytecode": "0x608060405234801561001057600080fd5b50611208806100206000396000f3fe608060405234801561001057600080fd5b506004361061004c5760003560e01c806304e15de5146100515780634597654f146100895780638e9e3aad146100a5578063c98244d0146100c1575b600080fd5b61006b6004803603810190610066919061083e565b6100f3565b604051610080999897969594939291906109e3565b60405180910390f35b6100a3600480360381019061009e919061083e565b610348565b005b6100bf60048036038101906100ba9190610be7565b610417565b005b6100db60048036038101906100d6919061083e565b610603565b6040516100ea93929190610d1a565b60405180910390f35b6000818154811061010357600080fd5b90600052602060002090600b020160009150905080600001549080600101805461012c90610d8e565b80601f016020809104026020016040519081016040528092919081815260200182805461015890610d8e565b80156101a55780601f1061017a576101008083540402835291602001916101a5565b820191906000526020600020905b81548152906001019060200180831161018857829003601f168201915b5050505050908060020180546101ba90610d8e565b80601f01602080910402602001604051908101604052809291908181526020018280546101e690610d8e565b80156102335780601f1061020857610100808354040283529160200191610233565b820191906000526020600020905b81548152906001019060200180831161021657829003601f168201915b50505050509080600301805461024890610d8e565b80601f016020809104026020016040519081016040528092919081815260200182805461027490610d8e565b80156102c15780601f10610296576101008083540402835291602001916102c1565b820191906000526020600020905b8154815290600101906020018083116102a457829003601f168201915b505050505090806004015490806005015490806006016040518060800160405290816000820154815260200160018201548152602001600282015481526020016003820154815250509080600a0160009054906101000a900473ffffffffffffffffffffffffffffffffffffffff169080600a0160149054906101000a900460ff16905089565b600080828154811061035d5761035c610dbf565b5b90600052602060002090600b0201905080600a0160149054906101000a900460ff16156103bf576040517f08c379a00000000000000000000000000000000000000000000000000000000081526004016103b690610e3a565b60405180910390fd5b600181600a0160146101000a81548160ff0219169083151502179055507fefc3caf2e4b08f41d5380ca4184c2818fc142ad5e07c161416b764d4c23dbf2c8260405161040b9190610e5a565b60405180910390a15050565b60006040518061012001604052808c81526020018b81526020018a815260200189815260200188815260200187815260200160405180608001604052808881526020018781526020018681526020018581525081526020013373ffffffffffffffffffffffffffffffffffffffff1681526020016000151581525090806001815401808255809150506001900390600052602060002090600b02016000909190919091506000820151816000015560208201518160010190816104da9190611021565b5060408201518160020190816104f09190611021565b5060608201518160030190816105069190611021565b506080820151816004015560a0820151816005015560c08201518160060160008201518160000155602082015181600101556040820151816002015560608201518160030155505060e082015181600a0160006101000a81548173ffffffffffffffffffffffffffffffffffffffff021916908373ffffffffffffffffffffffffffffffffffffffff16021790555061010082015181600a0160146101000a81548160ff02191690831515021790555050507fdeed2a5a2757441d7be72775e6b904229aa97d5583567ba418580423e9dd4db38a8a8a8a336040516105ef9594939291906110f3565b60405180910390a150505050505050505050565b600060608060005b6000805490508110156107eb57846000828154811061062d5761062c610dbf565b5b90600052602060002090600b020160000154036107d8576000818154811061065857610657610dbf565b5b90600052602060002090600b0201600001546000828154811061067e5761067d610dbf565b5b90600052602060002090600b0201600101600083815481106106a3576106a2610dbf565b5b90600052602060002090600b02016002018180546106c090610d8e565b80601f01602080910402602001604051908101604052809291908181526020018280546106ec90610d8e565b80156107395780601f1061070e57610100808354040283529160200191610739565b820191906000526020600020905b81548152906001019060200180831161071c57829003601f168201915b5050505050915080805461074c90610d8e565b80601f016020809104026020016040519081016040528092919081815260200182805461077890610d8e565b80156107c55780601f1061079a576101008083540402835291602001916107c5565b820191906000526020600020905b8154815290600101906020018083116107a857829003601f168201915b50505050509050935093509350506107ed565b80806107e39061118a565b91505061060b565b505b9193909250565b6000604051905090565b600080fd5b600080fd5b6000819050919050565b61081b81610808565b811461082657600080fd5b50565b60008135905061083881610812565b92915050565b600060208284031215610854576108536107fe565b5b600061086284828501610829565b91505092915050565b61087481610808565b82525050565b600081519050919050565b600082825260208201905092915050565b60005b838110156108b4578082015181840152602081019050610899565b60008484015250505050565b6000601f19601f8301169050919050565b60006108dc8261087a565b6108e68185610885565b93506108f6818560208601610896565b6108ff816108c0565b840191505092915050565b61091381610808565b82525050565b6000819050919050565b61092c81610919565b82525050565b608082016000820151610948600085018261090a565b50602082015161095b6020850182610923565b50604082015161096e6040850182610923565b5060608201516109816060850182610923565b50505050565b600073ffffffffffffffffffffffffffffffffffffffff82169050919050565b60006109b282610987565b9050919050565b6109c2816109a7565b82525050565b60008115159050919050565b6109dd816109c8565b82525050565b6000610180820190506109f9600083018c61086b565b8181036020830152610a0b818b6108d1565b90508181036040830152610a1f818a6108d1565b90508181036060830152610a3381896108d1565b9050610a42608083018861086b565b610a4f60a083018761086b565b610a5c60c0830186610932565b610a6a6101408301856109b9565b610a786101608301846109d4565b9a9950505050505050505050565b600080fd5b600080fd5b7f4e487b7100000000000000000000000000000000000000000000000000000000600052604160045260246000fd5b610ac8826108c0565b810181811067ffffffffffffffff82111715610ae757610ae6610a90565b5b80604052505050565b6000610afa6107f4565b9050610b068282610abf565b919050565b600067ffffffffffffffff821115610b2657610b25610a90565b5b610b2f826108c0565b9050602081019050919050565b82818337600083830152505050565b6000610b5e610b5984610b0b565b610af0565b905082815260208101848484011115610b7a57610b79610a8b565b5b610b85848285610b3c565b509392505050565b600082601f830112610ba257610ba1610a86565b5b8135610bb2848260208601610b4b565b91505092915050565b610bc481610919565b8114610bcf57600080fd5b50565b600081359050610be181610bbb565b92915050565b6000806000806000806000806000806101408b8d031215610c0b57610c0a6107fe565b5b6000610c198d828e01610829565b9a505060208b013567ffffffffffffffff811115610c3a57610c39610803565b5b610c468d828e01610b8d565b99505060408b013567ffffffffffffffff811115610c6757610c66610803565b5b610c738d828e01610b8d565b98505060608b013567ffffffffffffffff811115610c9457610c93610803565b5b610ca08d828e01610b8d565b9750506080610cb18d828e01610829565b96505060a0610cc28d828e01610829565b95505060c0610cd38d828e01610829565b94505060e0610ce48d828e01610bd2565b935050610100610cf68d828e01610bd2565b925050610120610d088d828e01610bd2565b9150509295989b9194979a5092959850565b6000606082019050610d2f600083018661086b565b8181036020830152610d4181856108d1565b90508181036040830152610d5581846108d1565b9050949350505050565b7f4e487b7100000000000000000000000000000000000000000000000000000000600052602260045260246000fd5b60006002820490506001821680610da657607f821691505b602082108103610db957610db8610d5f565b5b50919050565b7f4e487b7100000000000000000000000000000000000000000000000000000000600052603260045260246000fd5b7f497373756520616c7265616479207265736f6c76656400000000000000000000600082015250565b6000610e24601683610885565b9150610e2f82610dee565b602082019050919050565b60006020820190508181036000830152610e5381610e17565b9050919050565b6000602082019050610e6f600083018461086b565b92915050565b60008190508160005260206000209050919050565b60006020601f8301049050919050565b600082821b905092915050565b600060088302610ed77fffffffffffffffffffffffffffffffffffffffffffffffffffffffffffffffff82610e9a565b610ee18683610e9a565b95508019841693508086168417925050509392505050565b6000819050919050565b6000610f1e610f19610f1484610808565b610ef9565b610808565b9050919050565b6000819050919050565b610f3883610f03565b610f4c610f4482610f25565b848454610ea7565b825550505050565b600090565b610f61610f54565b610f6c818484610f2f565b505050565b5b81811015610f9057610f85600082610f59565b600181019050610f72565b5050565b601f821115610fd557610fa681610e75565b610faf84610e8a565b81016020851015610fbe578190505b610fd2610fca85610e8a565b830182610f71565b50505b505050565b600082821c905092915050565b6000610ff860001984600802610fda565b1980831691505092915050565b60006110118383610fe7565b9150826002028217905092915050565b61102a8261087a565b67ffffffffffffffff81111561104357611042610a90565b5b61104d8254610d8e565b611058828285610f94565b600060209050601f83116001811461108b5760008415611079578287015190505b6110838582611005565b8655506110eb565b601f19841661109986610e75565b60005b828110156110c15784890151825560018201915060208501945060208101905061109c565b868310156110de57848901516110da601f891682610fe7565b8355505b6001600288020188555050505b505050505050565b600060a082019050611108600083018861086b565b818103602083015261111a81876108d1565b9050818103604083015261112e81866108d1565b9050818103606083015261114281856108d1565b905061115160808301846109b9565b9695505050505050565b7f4e487b7100000000000000000000000000000000000000000000000000000000600052601160045260246000fd5b600061119582610808565b91507fffffffffffffffffffffffffffffffffffffffffffffffffffffffffffffffff82036111c7576111c661115b565b5b60018201905091905056fea264697066735822122080aa15f7f2067905960ac9d2a4c4bac65f1bed572fbbd9fcbd84f29e38f93e3264736f6c63430008120033",
  "immutableReferences": {},
  "source": "pragma solidity ^0.8.18;\n\ncontract IssueManagement {\n    // Structure to store issue details\n    struct Issue {\n        uint issueId;\n        string issueName;\n        string description;\n        string dateOfComplaint;\n        uint approvalVotes;\n        uint denialVotes;\n        Location location;\n        address creator;\n        bool resolved;\n    }\n\n    // Structure to store location details\n    struct Location {\n        uint accuracy;\n        int altitude;\n        int latitude;\n        int longitude;\n    }\n\n    // Array to store issues\n    Issue[] public issues;\n\n    // Events\n    event IssueCreated(uint issueId, string issueName, string description, string dateOfComplaint, address creator);\n    event IssueResolved(uint issueId);\n\n    // Function to create an issue\n    function createIssue(\n        uint _issueId,\n        string memory _issueName,\n        string memory _description,\n        string memory _dateOfComplaint,\n        uint _approval,\n        uint _denial,\n        uint _accuracy,\n        int _altitude,\n        int _latitude,\n        int _longitude\n    ) public {\n\n        issues.push(Issue({\n            issueId: _issueId,\n            issueName: _issueName,\n            description: _description,\n            dateOfComplaint: _dateOfComplaint,\n            approvalVotes: _approval,\n            denialVotes: _denial,\n            location: Location({\n                accuracy: _accuracy,\n                altitude: _altitude,\n                latitude: _latitude,\n                longitude: _longitude\n            }),\n            creator: msg.sender,\n            resolved: false\n        }));\n        emit IssueCreated(_issueId, _issueName, _description, _dateOfComplaint, msg.sender);\n    }\n\n    // Function to resolve an issue\n    function resolveIssue(uint _issueId) public {\n        Issue storage issue = issues[_issueId];\n        require(!issue.resolved, \"Issue already resolved\");\n        issue.resolved = true;\n        emit IssueResolved(_issueId);\n    }\n\n    function getIssueById(uint _issueId) public view returns (\n        uint issueId,\n        string memory issueName,\n        string memory description\n    ) {\n        for (uint i = 0; i < issues.length; i++) {\n            if (issues[i].issueId == _issueId) {\n                return (\n                    issues[i].issueId,\n                    issues[i].issueName,\n                    issues[i].description\n                );\n            }\n        }\n    }\n}",
  "sourcePath": "/Users/Rishikumar/Documents/GitHub/ConTracker/dapp/contracts/IssueManagement.sol",
  "compiler": {
    "name": "solc",
    "version": "0.8.18+commit.87f61d96.Emscripten.clang"
  },
  "schemaVersion": "3.4.16",
  "updatedAt": "2025-01-10T20:16:00.405Z",
  "networkType": "ethereum",
  "devdoc": {
    "kind": "dev",
    "methods": {},
    "version": 1
  },
  "userdoc": {
    "kind": "user",
    "methods": {},
    "version": 1
  }
}